{
    "_format": "hh-sol-artifact-1",
    "contractName": "MyEpicNFT",
    "sourceName": "contracts/MyEpicNFT.sol",
    "abi": [
        {
            "inputs": [],
            "stateMutability": "nonpayable",
            "type": "constructor"
        },
        {
            "anonymous": false,
            "inputs": [
                {
                    "indexed": true,
                    "internalType": "address",
                    "name": "owner",
                    "type": "address"
                },
                {
                    "indexed": true,
                    "internalType": "address",
                    "name": "approved",
                    "type": "address"
                },
                {
                    "indexed": true,
                    "internalType": "uint256",
                    "name": "tokenId",
                    "type": "uint256"
                }
            ],
            "name": "Approval",
            "type": "event"
        },
        {
            "anonymous": false,
            "inputs": [
                {
                    "indexed": true,
                    "internalType": "address",
                    "name": "owner",
                    "type": "address"
                },
                {
                    "indexed": true,
                    "internalType": "address",
                    "name": "operator",
                    "type": "address"
                },
                {
                    "indexed": false,
                    "internalType": "bool",
                    "name": "approved",
                    "type": "bool"
                }
            ],
            "name": "ApprovalForAll",
            "type": "event"
        },
        {
            "anonymous": false,
            "inputs": [
                {
                    "indexed": false,
                    "internalType": "address",
                    "name": "sender",
                    "type": "address"
                },
                {
                    "indexed": false,
                    "internalType": "uint256",
                    "name": "tokenId",
                    "type": "uint256"
                }
            ],
            "name": "NewEpicNFTMinted",
            "type": "event"
        },
        {
            "anonymous": false,
            "inputs": [
                {
                    "indexed": true,
                    "internalType": "address",
                    "name": "from",
                    "type": "address"
                },
                {
                    "indexed": true,
                    "internalType": "address",
                    "name": "to",
                    "type": "address"
                },
                {
                    "indexed": true,
                    "internalType": "uint256",
                    "name": "tokenId",
                    "type": "uint256"
                }
            ],
            "name": "Transfer",
            "type": "event"
        },
        {
            "inputs": [
                {
                    "internalType": "address",
                    "name": "to",
                    "type": "address"
                },
                {
                    "internalType": "uint256",
                    "name": "tokenId",
                    "type": "uint256"
                }
            ],
            "name": "approve",
            "outputs": [],
            "stateMutability": "nonpayable",
            "type": "function"
        },
        {
            "inputs": [
                {
                    "internalType": "address",
                    "name": "owner",
                    "type": "address"
                }
            ],
            "name": "balanceOf",
            "outputs": [
                {
                    "internalType": "uint256",
                    "name": "",
                    "type": "uint256"
                }
            ],
            "stateMutability": "view",
            "type": "function"
        },
        {
            "inputs": [
                {
                    "internalType": "uint256",
                    "name": "tokenId",
                    "type": "uint256"
                }
            ],
            "name": "getApproved",
            "outputs": [
                {
                    "internalType": "address",
                    "name": "",
                    "type": "address"
                }
            ],
            "stateMutability": "view",
            "type": "function"
        },
        {
            "inputs": [
                {
                    "internalType": "address",
                    "name": "owner",
                    "type": "address"
                },
                {
                    "internalType": "address",
                    "name": "operator",
                    "type": "address"
                }
            ],
            "name": "isApprovedForAll",
            "outputs": [
                {
                    "internalType": "bool",
                    "name": "",
                    "type": "bool"
                }
            ],
            "stateMutability": "view",
            "type": "function"
        },
        {
            "inputs": [],
            "name": "makeAnEpicNFT",
            "outputs": [],
            "stateMutability": "nonpayable",
            "type": "function"
        },
        {
            "inputs": [],
            "name": "name",
            "outputs": [
                {
                    "internalType": "string",
                    "name": "",
                    "type": "string"
                }
            ],
            "stateMutability": "view",
            "type": "function"
        },
        {
            "inputs": [
                {
                    "internalType": "uint256",
                    "name": "tokenId",
                    "type": "uint256"
                }
            ],
            "name": "ownerOf",
            "outputs": [
                {
                    "internalType": "address",
                    "name": "",
                    "type": "address"
                }
            ],
            "stateMutability": "view",
            "type": "function"
        },
        {
            "inputs": [
                {
                    "internalType": "uint256",
                    "name": "tokenId",
                    "type": "uint256"
                }
            ],
            "name": "pickRandomFirstWord",
            "outputs": [
                {
                    "internalType": "string",
                    "name": "",
                    "type": "string"
                }
            ],
            "stateMutability": "view",
            "type": "function"
        },
        {
            "inputs": [
                {
                    "internalType": "uint256",
                    "name": "tokenId",
                    "type": "uint256"
                }
            ],
            "name": "pickRandomSecondWord",
            "outputs": [
                {
                    "internalType": "string",
                    "name": "",
                    "type": "string"
                }
            ],
            "stateMutability": "view",
            "type": "function"
        },
        {
            "inputs": [
                {
                    "internalType": "uint256",
                    "name": "tokenId",
                    "type": "uint256"
                }
            ],
            "name": "pickRandomThirdWord",
            "outputs": [
                {
                    "internalType": "string",
                    "name": "",
                    "type": "string"
                }
            ],
            "stateMutability": "view",
            "type": "function"
        },
        {
            "inputs": [
                {
                    "internalType": "address",
                    "name": "from",
                    "type": "address"
                },
                {
                    "internalType": "address",
                    "name": "to",
                    "type": "address"
                },
                {
                    "internalType": "uint256",
                    "name": "tokenId",
                    "type": "uint256"
                }
            ],
            "name": "safeTransferFrom",
            "outputs": [],
            "stateMutability": "nonpayable",
            "type": "function"
        },
        {
            "inputs": [
                {
                    "internalType": "address",
                    "name": "from",
                    "type": "address"
                },
                {
                    "internalType": "address",
                    "name": "to",
                    "type": "address"
                },
                {
                    "internalType": "uint256",
                    "name": "tokenId",
                    "type": "uint256"
                },
                {
                    "internalType": "bytes",
                    "name": "data",
                    "type": "bytes"
                }
            ],
            "name": "safeTransferFrom",
            "outputs": [],
            "stateMutability": "nonpayable",
            "type": "function"
        },
        {
            "inputs": [
                {
                    "internalType": "address",
                    "name": "operator",
                    "type": "address"
                },
                {
                    "internalType": "bool",
                    "name": "approved",
                    "type": "bool"
                }
            ],
            "name": "setApprovalForAll",
            "outputs": [],
            "stateMutability": "nonpayable",
            "type": "function"
        },
        {
            "inputs": [
                {
                    "internalType": "bytes4",
                    "name": "interfaceId",
                    "type": "bytes4"
                }
            ],
            "name": "supportsInterface",
            "outputs": [
                {
                    "internalType": "bool",
                    "name": "",
                    "type": "bool"
                }
            ],
            "stateMutability": "view",
            "type": "function"
        },
        {
            "inputs": [],
            "name": "symbol",
            "outputs": [
                {
                    "internalType": "string",
                    "name": "",
                    "type": "string"
                }
            ],
            "stateMutability": "view",
            "type": "function"
        },
        {
            "inputs": [
                {
                    "internalType": "uint256",
                    "name": "tokenId",
                    "type": "uint256"
                }
            ],
            "name": "tokenURI",
            "outputs": [
                {
                    "internalType": "string",
                    "name": "",
                    "type": "string"
                }
            ],
            "stateMutability": "view",
            "type": "function"
        },
        {
            "inputs": [
                {
                    "internalType": "address",
                    "name": "from",
                    "type": "address"
                },
                {
                    "internalType": "address",
                    "name": "to",
                    "type": "address"
                },
                {
                    "internalType": "uint256",
                    "name": "tokenId",
                    "type": "uint256"
                }
            ],
            "name": "transferFrom",
            "outputs": [],
            "stateMutability": "nonpayable",
            "type": "function"
        }
    ],
    "bytecode": "0x608060405260405180610160016040528061012f815260200162003b2f61012f913960089080519060200190620000389291906200067e565b506040518060c001604052806040518060400160405280600981526020017f594f55525f574f5244000000000000000000000000000000000000000000000081525081526020016040518060400160405280600981526020017f594f55525f574f5244000000000000000000000000000000000000000000000081525081526020016040518060400160405280600981526020017f594f55525f574f5244000000000000000000000000000000000000000000000081525081526020016040518060400160405280600981526020017f594f55525f574f5244000000000000000000000000000000000000000000000081525081526020016040518060400160405280600981526020017f594f55525f574f5244000000000000000000000000000000000000000000000081525081526020016040518060400160405280600981526020017f594f55525f574f524400000000000000000000000000000000000000000000008152508152506009906006620001b69291906200070f565b506040518060c001604052806040518060400160405280600981526020017f594f55525f574f5244000000000000000000000000000000000000000000000081525081526020016040518060400160405280600981526020017f594f55525f574f5244000000000000000000000000000000000000000000000081525081526020016040518060400160405280600981526020017f594f55525f574f5244000000000000000000000000000000000000000000000081525081526020016040518060400160405280600981526020017f594f55525f574f5244000000000000000000000000000000000000000000000081525081526020016040518060400160405280600981526020017f594f55525f574f5244000000000000000000000000000000000000000000000081525081526020016040518060400160405280600981526020017f594f55525f574f52440000000000000000000000000000000000000000000000815250815250600a906006620003349291906200070f565b506040518060c001604052806040518060400160405280600981526020017f594f55525f574f5244000000000000000000000000000000000000000000000081525081526020016040518060400160405280600981526020017f594f55525f574f5244000000000000000000000000000000000000000000000081525081526020016040518060400160405280600981526020017f594f55525f574f5244000000000000000000000000000000000000000000000081525081526020016040518060400160405280600981526020017f594f55525f574f5244000000000000000000000000000000000000000000000081525081526020016040518060400160405280600981526020017f594f55525f574f5244000000000000000000000000000000000000000000000081525081526020016040518060400160405280600981526020017f594f55525f574f52440000000000000000000000000000000000000000000000815250815250600b906006620004b29291906200070f565b50348015620004c057600080fd5b506040518060400160405280600981526020017f5371756172654e465400000000000000000000000000000000000000000000008152506040518060400160405280600681526020017f53515541524500000000000000000000000000000000000000000000000000008152508160009080519060200190620005459291906200067e565b5080600190805190602001906200055e9291906200067e565b505050620005ac6040518060400160405280601e81526020017f54686973206973206d79204e465420636f6e74726163742e20576f6168210000815250620005b260201b62000ff41760201c565b62000930565b6200065281604051602401620005c9919062000844565b6040516020818303038152906040527f41304fac000000000000000000000000000000000000000000000000000000007bffffffffffffffffffffffffffffffffffffffffffffffffffffffff19166020820180517bffffffffffffffffffffffffffffffffffffffffffffffffffffffff83818316178352505050506200065560201b60201c565b50565b60008151905060006a636f6e736f6c652e6c6f679050602083016000808483855afa5050505050565b8280546200068c90620008ba565b90600052602060002090601f016020900481019282620006b05760008555620006fc565b82601f10620006cb57805160ff1916838001178555620006fc565b82800160010185558215620006fc579182015b82811115620006fb578251825591602001919060010190620006de565b5b5090506200070b919062000776565b5090565b82805482825590600052602060002090810192821562000763579160200282015b8281111562000762578251829080519060200190620007519291906200067e565b509160200191906001019062000730565b5b50905062000772919062000795565b5090565b5b808211156200079157600081600090555060010162000777565b5090565b5b80821115620007b95760008181620007af9190620007bd565b5060010162000796565b5090565b508054620007cb90620008ba565b6000825580601f10620007df575062000800565b601f016020900490600052602060002090810190620007ff919062000776565b5b50565b6000620008108262000868565b6200081c818562000873565b93506200082e81856020860162000884565b62000839816200091f565b840191505092915050565b6000602082019050818103600083015262000860818462000803565b905092915050565b600081519050919050565b600082825260208201905092915050565b60005b83811015620008a457808201518184015260208101905062000887565b83811115620008b4576000848401525b50505050565b60006002820490506001821680620008d357607f821691505b60208210811415620008ea57620008e9620008f0565b5b50919050565b7f4e487b7100000000000000000000000000000000000000000000000000000000600052602260045260246000fd5b6000601f19601f8301169050919050565b6131ef80620009406000396000f3fe608060405234801561001057600080fd5b506004361061010b5760003560e01c806370a08231116100a2578063b88d4fde11610071578063b88d4fde146102dc578063c575757a146102f8578063c87b56dd14610328578063de9d132f14610358578063e985e9c5146103625761010b565b806370a082311461024257806395d89b4114610272578063a22cb46514610290578063b187301f146102ac5761010b565b806323b872dd116100de57806323b872dd146101aa5780632de38d68146101c657806342842e0e146101f65780636352211e146102125761010b565b806301ffc9a71461011057806306fdde0314610140578063081812fc1461015e578063095ea7b31461018e575b600080fd5b61012a60048036038101906101259190612225565b610392565b6040516101379190612799565b60405180910390f35b610148610474565b60405161015591906127b4565b60405180910390f35b61017860048036038101906101739190612277565b610506565b6040516101859190612709565b60405180910390f35b6101a860048036038101906101a391906121e9565b61054c565b005b6101c460048036038101906101bf91906120e3565b610664565b005b6101e060048036038101906101db9190612277565b6106c4565b6040516101ed91906127b4565b60405180910390f35b610210600480360381019061020b91906120e3565b6107e2565b005b61022c60048036038101906102279190612277565b610802565b6040516102399190612709565b60405180910390f35b61025c6004803603810190610257919061207e565b6108b4565b6040516102699190612994565b60405180910390f35b61027a61096c565b60405161028791906127b4565b60405180910390f35b6102aa60048036038101906102a591906121ad565b6109fe565b005b6102c660048036038101906102c19190612277565b610a14565b6040516102d391906127b4565b60405180910390f35b6102f660048036038101906102f19190612132565b610b32565b005b610312600480360381019061030d9190612277565b610b94565b60405161031f91906127b4565b60405180910390f35b610342600480360381019061033d9190612277565b610cb2565b60405161034f91906127b4565b60405180910390f35b610360610dc5565b005b61037c600480360381019061037791906120a7565b610f60565b6040516103899190612799565b60405180910390f35b60007f80ac58cd000000000000000000000000000000000000000000000000000000007bffffffffffffffffffffffffffffffffffffffffffffffffffffffff1916827bffffffffffffffffffffffffffffffffffffffffffffffffffffffff1916148061045d57507f5b5e139f000000000000000000000000000000000000000000000000000000007bffffffffffffffffffffffffffffffffffffffffffffffffffffffff1916827bffffffffffffffffffffffffffffffffffffffffffffffffffffffff1916145b8061046d575061046c8261108d565b5b9050919050565b60606000805461048390612bce565b80601f01602080910402602001604051908101604052809291908181526020018280546104af90612bce565b80156104fc5780601f106104d1576101008083540402835291602001916104fc565b820191906000526020600020905b8154815290600101906020018083116104df57829003601f168201915b5050505050905090565b6000610511826110f7565b6004600083815260200190815260200160002060009054906101000a900473ffffffffffffffffffffffffffffffffffffffff169050919050565b600061055782610802565b90508073ffffffffffffffffffffffffffffffffffffffff168373ffffffffffffffffffffffffffffffffffffffff1614156105c8576040517f08c379a00000000000000000000000000000000000000000000000000000000081526004016105bf90612954565b60405180910390fd5b8073ffffffffffffffffffffffffffffffffffffffff166105e7611142565b73ffffffffffffffffffffffffffffffffffffffff161480610616575061061581610610611142565b610f60565b5b610655576040517f08c379a000000000000000000000000000000000000000000000000000000000815260040161064c906128f4565b60405180910390fd5b61065f838361114a565b505050565b61067561066f611142565b82611203565b6106b4576040517f08c379a00000000000000000000000000000000000000000000000000000000081526004016106ab90612974565b60405180910390fd5b6106bf838383611298565b505050565b606060006106f86106d4846114ff565b6040516020016106e491906126e7565b6040516020818303038152906040526116ac565b90506009805490508161070b9190612c7a565b905060098181548110610747577f4e487b7100000000000000000000000000000000000000000000000000000000600052603260045260246000fd5b90600052602060002001805461075c90612bce565b80601f016020809104026020016040519081016040528092919081815260200182805461078890612bce565b80156107d55780601f106107aa576101008083540402835291602001916107d5565b820191906000526020600020905b8154815290600101906020018083116107b857829003601f168201915b5050505050915050919050565b6107fd83838360405180602001604052806000815250610b32565b505050565b6000806002600084815260200190815260200160002060009054906101000a900473ffffffffffffffffffffffffffffffffffffffff169050600073ffffffffffffffffffffffffffffffffffffffff168173ffffffffffffffffffffffffffffffffffffffff1614156108ab576040517f08c379a00000000000000000000000000000000000000000000000000000000081526004016108a290612934565b60405180910390fd5b80915050919050565b60008073ffffffffffffffffffffffffffffffffffffffff168273ffffffffffffffffffffffffffffffffffffffff161415610925576040517f08c379a000000000000000000000000000000000000000000000000000000000815260040161091c906128b4565b60405180910390fd5b600360008373ffffffffffffffffffffffffffffffffffffffff1673ffffffffffffffffffffffffffffffffffffffff168152602001908152602001600020549050919050565b60606001805461097b90612bce565b80601f01602080910402602001604051908101604052809291908181526020018280546109a790612bce565b80156109f45780601f106109c9576101008083540402835291602001916109f4565b820191906000526020600020905b8154815290600101906020018083116109d757829003601f168201915b5050505050905090565b610a10610a09611142565b83836116df565b5050565b60606000610a48610a24846114ff565b604051602001610a3491906126c5565b6040516020818303038152906040526116ac565b9050600a8054905081610a5b9190612c7a565b9050600a8181548110610a97577f4e487b7100000000000000000000000000000000000000000000000000000000600052603260045260246000fd5b906000526020600020018054610aac90612bce565b80601f0160208091040260200160405190810160405280929190818152602001828054610ad890612bce565b8015610b255780601f10610afa57610100808354040283529160200191610b25565b820191906000526020600020905b815481529060010190602001808311610b0857829003601f168201915b5050505050915050919050565b610b43610b3d611142565b83611203565b610b82576040517f08c379a0000000000000000000000000000000000000000000000000000000008152600401610b7990612974565b60405180910390fd5b610b8e8484848461184c565b50505050565b60606000610bc8610ba4846114ff565b604051602001610bb491906126a3565b6040516020818303038152906040526116ac565b9050600b8054905081610bdb9190612c7a565b9050600b8181548110610c17577f4e487b7100000000000000000000000000000000000000000000000000000000600052603260045260246000fd5b906000526020600020018054610c2c90612bce565b80601f0160208091040260200160405190810160405280929190818152602001828054610c5890612bce565b8015610ca55780601f10610c7a57610100808354040283529160200191610ca5565b820191906000526020600020905b815481529060010190602001808311610c8857829003601f168201915b5050505050915050919050565b6060610cbd826110f7565b6000600660008481526020019081526020016000208054610cdd90612bce565b80601f0160208091040260200160405190810160405280929190818152602001828054610d0990612bce565b8015610d565780601f10610d2b57610100808354040283529160200191610d56565b820191906000526020600020905b815481529060010190602001808311610d3957829003601f168201915b505050505090506000610d676118a8565b9050600081511415610d7d578192505050610dc0565b600082511115610db2578082604051602001610d9a929190612636565b60405160208183030381529060405292505050610dc0565b610dbb846118bf565b925050505b919050565b6000610dd16007611927565b90506000610dde826106c4565b90506000610deb83610a14565b90506000610df884610b94565b905060006008848484604051602001610e14949392919061265a565b6040516020818303038152906040529050610e636040518060400160405280601581526020017f0a2d2d2d2d2d2d2d2d2d2d2d2d2d2d2d2d2d2d2d2d0000000000000000000000815250610ff4565b610e6c81610ff4565b610eaa6040518060400160405280601581526020017f2d2d2d2d2d2d2d2d2d2d2d2d2d2d2d2d2d2d2d2d0a0000000000000000000000815250610ff4565b610eb43386611935565b610ef3856040518060400160405280600481526020017f626c616800000000000000000000000000000000000000000000000000000000815250611953565b610efd60076119c7565b610f206040518060600160405280602581526020016131956025913986336119dd565b7febb98688741ffa4c7589bf325de30cf7becb63de567842e1ccdb6cb949fdc82c3386604051610f51929190612770565b60405180910390a15050505050565b6000600560008473ffffffffffffffffffffffffffffffffffffffff1673ffffffffffffffffffffffffffffffffffffffff16815260200190815260200160002060008373ffffffffffffffffffffffffffffffffffffffff1673ffffffffffffffffffffffffffffffffffffffff16815260200190815260200160002060009054906101000a900460ff16905092915050565b61108a8160405160240161100891906127b4565b6040516020818303038152906040527f41304fac000000000000000000000000000000000000000000000000000000007bffffffffffffffffffffffffffffffffffffffffffffffffffffffff19166020820180517bffffffffffffffffffffffffffffffffffffffffffffffffffffffff8381831617835250505050611a7c565b50565b60007f01ffc9a7000000000000000000000000000000000000000000000000000000007bffffffffffffffffffffffffffffffffffffffffffffffffffffffff1916827bffffffffffffffffffffffffffffffffffffffffffffffffffffffff1916149050919050565b61110081611aa5565b61113f576040517f08c379a000000000000000000000000000000000000000000000000000000000815260040161113690612934565b60405180910390fd5b50565b600033905090565b816004600083815260200190815260200160002060006101000a81548173ffffffffffffffffffffffffffffffffffffffff021916908373ffffffffffffffffffffffffffffffffffffffff160217905550808273ffffffffffffffffffffffffffffffffffffffff166111bd83610802565b73ffffffffffffffffffffffffffffffffffffffff167f8c5be1e5ebec7d5bd14f71427d1e84f3dd0314c0f7b2291e5b200ac8c7c3b92560405160405180910390a45050565b60008061120f83610802565b90508073ffffffffffffffffffffffffffffffffffffffff168473ffffffffffffffffffffffffffffffffffffffff16148061125157506112508185610f60565b5b8061128f57508373ffffffffffffffffffffffffffffffffffffffff1661127784610506565b73ffffffffffffffffffffffffffffffffffffffff16145b91505092915050565b8273ffffffffffffffffffffffffffffffffffffffff166112b882610802565b73ffffffffffffffffffffffffffffffffffffffff161461130e576040517f08c379a000000000000000000000000000000000000000000000000000000000815260040161130590612834565b60405180910390fd5b600073ffffffffffffffffffffffffffffffffffffffff168273ffffffffffffffffffffffffffffffffffffffff16141561137e576040517f08c379a000000000000000000000000000000000000000000000000000000000815260040161137590612874565b60405180910390fd5b611389838383611b11565b61139460008261114a565b6001600360008573ffffffffffffffffffffffffffffffffffffffff1673ffffffffffffffffffffffffffffffffffffffff16815260200190815260200160002060008282546113e49190612ae4565b925050819055506001600360008473ffffffffffffffffffffffffffffffffffffffff1673ffffffffffffffffffffffffffffffffffffffff168152602001908152602001600020600082825461143b9190612a5d565b92505081905550816002600083815260200190815260200160002060006101000a81548173ffffffffffffffffffffffffffffffffffffffff021916908373ffffffffffffffffffffffffffffffffffffffff160217905550808273ffffffffffffffffffffffffffffffffffffffff168473ffffffffffffffffffffffffffffffffffffffff167fddf252ad1be2c89b69c2b068fc378daa952ba7f163c4a11628f55a4df523b3ef60405160405180910390a46114fa838383611b16565b505050565b60606000821415611547576040518060400160405280600181526020017f300000000000000000000000000000000000000000000000000000000000000081525090506116a7565b600082905060005b6000821461157957808061156290612c31565b915050600a826115729190612ab3565b915061154f565b60008167ffffffffffffffff8111156115bb577f4e487b7100000000000000000000000000000000000000000000000000000000600052604160045260246000fd5b6040519080825280601f01601f1916602001820160405280156115ed5781602001600182028036833780820191505090505b5090505b600085146116a0576001826116069190612ae4565b9150600a856116159190612c7a565b60306116219190612a5d565b60f81b81838151811061165d577f4e487b7100000000000000000000000000000000000000000000000000000000600052603260045260246000fd5b60200101907effffffffffffffffffffffffffffffffffffffffffffffffffffffffffffff1916908160001a905350600a856116999190612ab3565b94506115f1565b8093505050505b919050565b6000816040516020016116bf919061261f565b6040516020818303038152906040528051906020012060001c9050919050565b8173ffffffffffffffffffffffffffffffffffffffff168373ffffffffffffffffffffffffffffffffffffffff16141561174e576040517f08c379a000000000000000000000000000000000000000000000000000000000815260040161174590612894565b60405180910390fd5b80600560008573ffffffffffffffffffffffffffffffffffffffff1673ffffffffffffffffffffffffffffffffffffffff16815260200190815260200160002060008473ffffffffffffffffffffffffffffffffffffffff1673ffffffffffffffffffffffffffffffffffffffff16815260200190815260200160002060006101000a81548160ff0219169083151502179055508173ffffffffffffffffffffffffffffffffffffffff168373ffffffffffffffffffffffffffffffffffffffff167f17307eab39ab6107e8899845ad3d59bd9653f200f220920489ca2b5937696c318360405161183f9190612799565b60405180910390a3505050565b611857848484611298565b61186384848484611b1b565b6118a2576040517f08c379a000000000000000000000000000000000000000000000000000000000815260040161189990612814565b60405180910390fd5b50505050565b606060405180602001604052806000815250905090565b60606118ca826110f7565b60006118d46118a8565b905060008151116118f4576040518060200160405280600081525061191f565b806118fe846114ff565b60405160200161190f929190612636565b6040516020818303038152906040525b915050919050565b600081600001549050919050565b61194f828260405180602001604052806000815250611cb2565b5050565b61195c82611aa5565b61199b576040517f08c379a0000000000000000000000000000000000000000000000000000000008152600401611992906128d4565b60405180910390fd5b806006600084815260200190815260200160002090805190602001906119c2929190611f0a565b505050565b6001816000016000828254019250508190555050565b611a778383836040516024016119f5939291906127d6565b6040516020818303038152906040527fe3849f79000000000000000000000000000000000000000000000000000000007bffffffffffffffffffffffffffffffffffffffffffffffffffffffff19166020820180517bffffffffffffffffffffffffffffffffffffffffffffffffffffffff8381831617835250505050611a7c565b505050565b60008151905060006a636f6e736f6c652e6c6f679050602083016000808483855afa5050505050565b60008073ffffffffffffffffffffffffffffffffffffffff166002600084815260200190815260200160002060009054906101000a900473ffffffffffffffffffffffffffffffffffffffff1673ffffffffffffffffffffffffffffffffffffffff1614159050919050565b505050565b505050565b6000611b3c8473ffffffffffffffffffffffffffffffffffffffff16611d0d565b15611ca5578373ffffffffffffffffffffffffffffffffffffffff1663150b7a02611b65611142565b8786866040518563ffffffff1660e01b8152600401611b879493929190612724565b602060405180830381600087803b158015611ba157600080fd5b505af1925050508015611bd257506040513d601f19601f82011682018060405250810190611bcf919061224e565b60015b611c55573d8060008114611c02576040519150601f19603f3d011682016040523d82523d6000602084013e611c07565b606091505b50600081511415611c4d576040517f08c379a0000000000000000000000000000000000000000000000000000000008152600401611c4490612814565b60405180910390fd5b805181602001fd5b63150b7a0260e01b7bffffffffffffffffffffffffffffffffffffffffffffffffffffffff1916817bffffffffffffffffffffffffffffffffffffffffffffffffffffffff191614915050611caa565b600190505b949350505050565b611cbc8383611d30565b611cc96000848484611b1b565b611d08576040517f08c379a0000000000000000000000000000000000000000000000000000000008152600401611cff90612814565b60405180910390fd5b505050565b6000808273ffffffffffffffffffffffffffffffffffffffff163b119050919050565b600073ffffffffffffffffffffffffffffffffffffffff168273ffffffffffffffffffffffffffffffffffffffff161415611da0576040517f08c379a0000000000000000000000000000000000000000000000000000000008152600401611d9790612914565b60405180910390fd5b611da981611aa5565b15611de9576040517f08c379a0000000000000000000000000000000000000000000000000000000008152600401611de090612854565b60405180910390fd5b611df560008383611b11565b6001600360008473ffffffffffffffffffffffffffffffffffffffff1673ffffffffffffffffffffffffffffffffffffffff1681526020019081526020016000206000828254611e459190612a5d565b92505081905550816002600083815260200190815260200160002060006101000a81548173ffffffffffffffffffffffffffffffffffffffff021916908373ffffffffffffffffffffffffffffffffffffffff160217905550808273ffffffffffffffffffffffffffffffffffffffff16600073ffffffffffffffffffffffffffffffffffffffff167fddf252ad1be2c89b69c2b068fc378daa952ba7f163c4a11628f55a4df523b3ef60405160405180910390a4611f0660008383611b16565b5050565b828054611f1690612bce565b90600052602060002090601f016020900481019282611f385760008555611f7f565b82601f10611f5157805160ff1916838001178555611f7f565b82800160010185558215611f7f579182015b82811115611f7e578251825591602001919060010190611f63565b5b509050611f8c9190611f90565b5090565b5b80821115611fa9576000816000905550600101611f91565b5090565b6000611fc0611fbb846129d4565b6129af565b905082815260208101848484011115611fd857600080fd5b611fe3848285612b8c565b509392505050565b600081359050611ffa81613138565b92915050565b60008135905061200f8161314f565b92915050565b60008135905061202481613166565b92915050565b60008151905061203981613166565b92915050565b600082601f83011261205057600080fd5b8135612060848260208601611fad565b91505092915050565b6000813590506120788161317d565b92915050565b60006020828403121561209057600080fd5b600061209e84828501611feb565b91505092915050565b600080604083850312156120ba57600080fd5b60006120c885828601611feb565b92505060206120d985828601611feb565b9150509250929050565b6000806000606084860312156120f857600080fd5b600061210686828701611feb565b935050602061211786828701611feb565b925050604061212886828701612069565b9150509250925092565b6000806000806080858703121561214857600080fd5b600061215687828801611feb565b945050602061216787828801611feb565b935050604061217887828801612069565b925050606085013567ffffffffffffffff81111561219557600080fd5b6121a18782880161203f565b91505092959194509250565b600080604083850312156121c057600080fd5b60006121ce85828601611feb565b92505060206121df85828601612000565b9150509250929050565b600080604083850312156121fc57600080fd5b600061220a85828601611feb565b925050602061221b85828601612069565b9150509250929050565b60006020828403121561223757600080fd5b600061224584828501612015565b91505092915050565b60006020828403121561226057600080fd5b600061226e8482850161202a565b91505092915050565b60006020828403121561228957600080fd5b600061229784828501612069565b91505092915050565b6122a981612b18565b82525050565b6122b881612b2a565b82525050565b60006122c982612a1a565b6122d38185612a30565b93506122e3818560208601612b9b565b6122ec81612d67565b840191505092915050565b600061230282612a25565b61230c8185612a41565b935061231c818560208601612b9b565b61232581612d67565b840191505092915050565b600061233b82612a25565b6123458185612a52565b9350612355818560208601612b9b565b80840191505092915050565b6000815461236e81612bce565b6123788186612a52565b9450600182166000811461239357600181146123a4576123d7565b60ff198316865281860193506123d7565b6123ad85612a05565b60005b838110156123cf578154818901526001820191506020810190506123b0565b838801955050505b50505092915050565b60006123ed603283612a41565b91506123f882612d78565b604082019050919050565b6000612410602583612a41565b915061241b82612dc7565b604082019050919050565b6000612433601c83612a41565b915061243e82612e16565b602082019050919050565b6000612456600a83612a52565b915061246182612e3f565b600a82019050919050565b6000612479602483612a41565b915061248482612e68565b604082019050919050565b600061249c601983612a41565b91506124a782612eb7565b602082019050919050565b60006124bf600b83612a52565b91506124ca82612ee0565b600b82019050919050565b60006124e2600d83612a52565b91506124ed82612f09565b600d82019050919050565b6000612505602983612a41565b915061251082612f32565b604082019050919050565b6000612528602e83612a41565b915061253382612f81565b604082019050919050565b600061254b603e83612a41565b915061255682612fd0565b604082019050919050565b600061256e602083612a41565b91506125798261301f565b602082019050919050565b6000612591601883612a41565b915061259c82613048565b602082019050919050565b60006125b4602183612a41565b91506125bf82613071565b604082019050919050565b60006125d7600a83612a52565b91506125e2826130c0565b600a82019050919050565b60006125fa602e83612a41565b9150612605826130e9565b604082019050919050565b61261981612b82565b82525050565b600061262b8284612330565b915081905092915050565b60006126428285612330565b915061264e8284612330565b91508190509392505050565b60006126668287612361565b91506126728286612330565b915061267e8285612330565b915061268a8284612330565b9150612695826124d5565b915081905095945050505050565b60006126ae82612449565b91506126ba8284612330565b915081905092915050565b60006126d0826124b2565b91506126dc8284612330565b915081905092915050565b60006126f2826125ca565b91506126fe8284612330565b915081905092915050565b600060208201905061271e60008301846122a0565b92915050565b600060808201905061273960008301876122a0565b61274660208301866122a0565b6127536040830185612610565b818103606083015261276581846122be565b905095945050505050565b600060408201905061278560008301856122a0565b6127926020830184612610565b9392505050565b60006020820190506127ae60008301846122af565b92915050565b600060208201905081810360008301526127ce81846122f7565b905092915050565b600060608201905081810360008301526127f081866122f7565b90506127ff6020830185612610565b61280c60408301846122a0565b949350505050565b6000602082019050818103600083015261282d816123e0565b9050919050565b6000602082019050818103600083015261284d81612403565b9050919050565b6000602082019050818103600083015261286d81612426565b9050919050565b6000602082019050818103600083015261288d8161246c565b9050919050565b600060208201905081810360008301526128ad8161248f565b9050919050565b600060208201905081810360008301526128cd816124f8565b9050919050565b600060208201905081810360008301526128ed8161251b565b9050919050565b6000602082019050818103600083015261290d8161253e565b9050919050565b6000602082019050818103600083015261292d81612561565b9050919050565b6000602082019050818103600083015261294d81612584565b9050919050565b6000602082019050818103600083015261296d816125a7565b9050919050565b6000602082019050818103600083015261298d816125ed565b9050919050565b60006020820190506129a96000830184612610565b92915050565b60006129b96129ca565b90506129c58282612c00565b919050565b6000604051905090565b600067ffffffffffffffff8211156129ef576129ee612d38565b5b6129f882612d67565b9050602081019050919050565b60008190508160005260206000209050919050565b600081519050919050565b600081519050919050565b600082825260208201905092915050565b600082825260208201905092915050565b600081905092915050565b6000612a6882612b82565b9150612a7383612b82565b9250827fffffffffffffffffffffffffffffffffffffffffffffffffffffffffffffffff03821115612aa857612aa7612cab565b5b828201905092915050565b6000612abe82612b82565b9150612ac983612b82565b925082612ad957612ad8612cda565b5b828204905092915050565b6000612aef82612b82565b9150612afa83612b82565b925082821015612b0d57612b0c612cab565b5b828203905092915050565b6000612b2382612b62565b9050919050565b60008115159050919050565b60007fffffffff0000000000000000000000000000000000000000000000000000000082169050919050565b600073ffffffffffffffffffffffffffffffffffffffff82169050919050565b6000819050919050565b82818337600083830152505050565b60005b83811015612bb9578082015181840152602081019050612b9e565b83811115612bc8576000848401525b50505050565b60006002820490506001821680612be657607f821691505b60208210811415612bfa57612bf9612d09565b5b50919050565b612c0982612d67565b810181811067ffffffffffffffff82111715612c2857612c27612d38565b5b80604052505050565b6000612c3c82612b82565b91507fffffffffffffffffffffffffffffffffffffffffffffffffffffffffffffffff821415612c6f57612c6e612cab565b5b600182019050919050565b6000612c8582612b82565b9150612c9083612b82565b925082612ca057612c9f612cda565b5b828206905092915050565b7f4e487b7100000000000000000000000000000000000000000000000000000000600052601160045260246000fd5b7f4e487b7100000000000000000000000000000000000000000000000000000000600052601260045260246000fd5b7f4e487b7100000000000000000000000000000000000000000000000000000000600052602260045260246000fd5b7f4e487b7100000000000000000000000000000000000000000000000000000000600052604160045260246000fd5b6000601f19601f8301169050919050565b7f4552433732313a207472616e7366657220746f206e6f6e20455243373231526560008201527f63656976657220696d706c656d656e7465720000000000000000000000000000602082015250565b7f4552433732313a207472616e736665722066726f6d20696e636f72726563742060008201527f6f776e6572000000000000000000000000000000000000000000000000000000602082015250565b7f4552433732313a20746f6b656e20616c7265616479206d696e74656400000000600082015250565b7f54484952445f574f524400000000000000000000000000000000000000000000600082015250565b7f4552433732313a207472616e7366657220746f20746865207a65726f2061646460008201527f7265737300000000000000000000000000000000000000000000000000000000602082015250565b7f4552433732313a20617070726f766520746f2063616c6c657200000000000000600082015250565b7f5345434f4e445f574f5244000000000000000000000000000000000000000000600082015250565b7f3c2f746578743e3c2f7376673e00000000000000000000000000000000000000600082015250565b7f4552433732313a2061646472657373207a65726f206973206e6f74206120766160008201527f6c6964206f776e65720000000000000000000000000000000000000000000000602082015250565b7f45524337323155524953746f726167653a2055524920736574206f66206e6f6e60008201527f6578697374656e7420746f6b656e000000000000000000000000000000000000602082015250565b7f4552433732313a20617070726f76652063616c6c6572206973206e6f7420746f60008201527f6b656e206f776e6572206e6f7220617070726f76656420666f7220616c6c0000602082015250565b7f4552433732313a206d696e7420746f20746865207a65726f2061646472657373600082015250565b7f4552433732313a20696e76616c696420746f6b656e2049440000000000000000600082015250565b7f4552433732313a20617070726f76616c20746f2063757272656e74206f776e6560008201527f7200000000000000000000000000000000000000000000000000000000000000602082015250565b7f46495253545f574f524400000000000000000000000000000000000000000000600082015250565b7f4552433732313a2063616c6c6572206973206e6f7420746f6b656e206f776e6560008201527f72206e6f7220617070726f766564000000000000000000000000000000000000602082015250565b61314181612b18565b811461314c57600080fd5b50565b61315881612b2a565b811461316357600080fd5b50565b61316f81612b36565b811461317a57600080fd5b50565b61318681612b82565b811461319157600080fd5b5056fe416e204e465420772f20494420257320686173206265656e206d696e74656420746f202573a2646970667358221220aea523cb595e5994c33c0a40bb13d02b0ddf35f6608664185c60f1c9acc0769b64736f6c634300080100333c73766720786d6c6e733d27687474703a2f2f7777772e77332e6f72672f323030302f73766727207072657365727665417370656374526174696f3d27784d696e594d696e206d656574272076696577426f783d273020302033353020333530273e3c7374796c653e2e62617365207b2066696c6c3a2077686974653b20666f6e742d66616d696c793a2073657269663b20666f6e742d73697a653a20323470783b207d3c2f7374796c653e3c726563742077696474683d273130302527206865696768743d2731303025272066696c6c3d27626c61636b27202f3e3c7465787420783d273530252720793d273530252720636c6173733d27626173652720646f6d696e616e742d626173656c696e653d276d6964646c652720746578742d616e63686f723d276d6964646c65273e",
    "linkReferences": {},
    "deployedLinkReferences": {}
}